{
  "contractName": "Election",
  "abi": [
    {
      "inputs": [],
      "payable": false,
      "stateMutability": "nonpayable",
      "type": "constructor"
    },
    {
      "anonymous": false,
      "inputs": [
        {
          "indexed": true,
          "internalType": "uint8",
          "name": "_candidateId",
          "type": "uint8"
        }
      ],
      "name": "votedEvent",
      "type": "event"
    },
    {
      "constant": true,
      "inputs": [
        {
          "internalType": "uint8",
          "name": "",
          "type": "uint8"
        }
      ],
      "name": "candidates",
      "outputs": [
        {
          "internalType": "uint8",
          "name": "id",
          "type": "uint8"
        },
        {
          "internalType": "string",
          "name": "name",
          "type": "string"
        },
        {
          "internalType": "uint32",
          "name": "voteCount",
          "type": "uint32"
        }
      ],
      "payable": false,
      "stateMutability": "view",
      "type": "function"
    },
    {
      "constant": true,
      "inputs": [],
      "name": "candidatesCount",
      "outputs": [
        {
          "internalType": "uint8",
          "name": "",
          "type": "uint8"
        }
      ],
      "payable": false,
      "stateMutability": "view",
      "type": "function"
    },
    {
      "constant": true,
      "inputs": [
        {
          "internalType": "address",
          "name": "",
          "type": "address"
        }
      ],
      "name": "voters",
      "outputs": [
        {
          "internalType": "bool",
          "name": "",
          "type": "bool"
        }
      ],
      "payable": false,
      "stateMutability": "view",
      "type": "function"
    },
    {
      "constant": false,
      "inputs": [
        {
          "internalType": "uint8",
          "name": "_candidateId",
          "type": "uint8"
        }
      ],
      "name": "vote",
      "outputs": [],
      "payable": false,
      "stateMutability": "nonpayable",
      "type": "function"
    }
  ],
  "bytecode": "0x608060405234801561001057600080fd5b506100556040518060400160405280600c81526020017f43616e646964617465202331000000000000000000000000000000000000000081525061009e60201b60201c565b6100996040518060400160405280600c81526020017f43616e646964617465202332000000000000000000000000000000000000000081525061009e60201b60201c565b61023c565b6002600081819054906101000a900460ff168092919060010191906101000a81548160ff021916908360ff160217905550506040518060600160405280600260009054906101000a900460ff1660ff168152602001828152602001600063ffffffff1681525060016000600260009054906101000a900460ff1660ff1660ff16815260200190815260200160002060008201518160000160006101000a81548160ff021916908360ff1602179055506020820151816001019080519060200190610169929190610197565b5060408201518160020160006101000a81548163ffffffff021916908363ffffffff16021790555090505050565b828054600181600116156101000203166002900490600052602060002090601f016020900481019282601f106101d857805160ff1916838001178555610206565b82800160010185558215610206579182015b828111156102055782518255916020019190600101906101ea565b5b5090506102139190610217565b5090565b61023991905b8082111561023557600081600090555060010161021d565b5090565b90565b6104798061024b6000396000f3fe608060405234801561001057600080fd5b506004361061004c5760003560e01c80632d35a8a2146100515780636d6277f414610075578063a3ec138d1461013f578063b3f98adc1461019b575b600080fd5b6100596101cc565b604051808260ff1660ff16815260200191505060405180910390f35b6100a46004803603602081101561008b57600080fd5b81019080803560ff1690602001909291905050506101df565b604051808460ff1660ff168152602001806020018363ffffffff1663ffffffff168152602001828103825284818151815260200191508051906020019080838360005b838110156101025780820151818401526020810190506100e7565b50505050905090810190601f16801561012f5780820380516001836020036101000a031916815260200191505b5094505050505060405180910390f35b6101816004803603602081101561015557600080fd5b81019080803573ffffffffffffffffffffffffffffffffffffffff1690602001909291905050506102be565b604051808215151515815260200191505060405180910390f35b6101ca600480360360208110156101b157600080fd5b81019080803560ff1690602001909291905050506102de565b005b600260009054906101000a900460ff1681565b60016020528060005260406000206000915090508060000160009054906101000a900460ff1690806001018054600181600116156101000203166002900480601f01602080910402602001604051908101604052809291908181526020018280546001816001161561010002031660029004801561029e5780601f106102735761010080835404028352916020019161029e565b820191906000526020600020905b81548152906001019060200180831161028157829003601f168201915b5050505050908060020160009054906101000a900463ffffffff16905083565b60006020528060005260406000206000915054906101000a900460ff1681565b6000803373ffffffffffffffffffffffffffffffffffffffff1673ffffffffffffffffffffffffffffffffffffffff16815260200190815260200160002060009054906101000a900460ff161561033457600080fd5b60008160ff1611801561035c5750600260009054906101000a900460ff1660ff168160ff1611155b61036557600080fd5b60016000803373ffffffffffffffffffffffffffffffffffffffff1673ffffffffffffffffffffffffffffffffffffffff16815260200190815260200160002060006101000a81548160ff021916908315150217905550600160008260ff1660ff168152602001908152602001600020600201600081819054906101000a900463ffffffff168092919060010191906101000a81548163ffffffff021916908363ffffffff160217905550508060ff167f299531cb58f85d08a44ed9485a55a7326c4383ec19cddcff4ff126cf2779600e60405160405180910390a25056fea265627a7a7231582014af67f8f8049e6881f243c3ab7e575d52f19231d907f0f16671278f0dadffeb64736f6c63430005100032",
  "source": "pragma solidity >=0.4.22 <0.8.0;\r\n\r\ncontract Election {\r\n    // Model a candidate\r\n    struct Candidate {\r\n        uint8 id;\r\n        string name;\r\n        uint32 voteCount;\r\n    }\r\n\r\n    // store accounts that have voted (the mapping takes an address and returns a boolean)\r\n    mapping(address => bool) public voters;\r\n    // Store candidates (to be developed)\r\n    // Fetch candidate (the mapping takes an integer which is candidate Id here and returns Candidate)\r\n    mapping(uint8 => Candidate) public candidates;\r\n\r\n    // Store candidates count\r\n    uint8 public candidatesCount;\r\n\r\n    // voted event\r\n    event votedEvent(uint8 indexed _candidateId);\r\n\r\n    // Constructor\r\n    constructor() public {\r\n        addCandidate(\"Candidate #1\");\r\n        addCandidate(\"Candidate #2\");\r\n    }\r\n\r\n    /* \r\n        we use private because we would only use it in constructor and smart contract itself \r\n        and we wouldn't let any other external accounts to access it\r\n    */\r\n    function addCandidate(string memory _name) private {\r\n        candidatesCount++;\r\n        candidates[candidatesCount] = Candidate(candidatesCount, _name, 0);\r\n    }\r\n\r\n    /* \r\n        as opposite of above, we have set this function to public so that any external account\r\n        can access it\r\n    */\r\n    function vote(uint8 _candidateId) public {\r\n        // check if they haven't voted before (\"require\" hinders the code from execution if the condition is false)\r\n        require(!voters[msg.sender]);\r\n\r\n        // chech if candidate is valid\r\n        require(_candidateId > 0 && _candidateId <= candidatesCount);\r\n\r\n        // record the address of that voter has voted\r\n        voters[msg.sender] = true;\r\n\r\n        // update candidate voteCount\r\n        candidates[_candidateId].voteCount++;\r\n\r\n        // trigger voted event\r\n        emit votedEvent(_candidateId);\r\n    }\r\n}\r\n",
  "sourcePath": "C:/Users/Ali/Desktop/blockchain/Decentralized_Election/contracts/Election.sol",
  "compiler": {
    "name": "solc",
    "version": "0.5.16+commit.9c3226ce.Emscripten.clang"
  },
  "schemaVersion": "3.3.4",
  "updatedAt": "2021-08-17T02:44:20.348Z",
  "devdoc": {
    "methods": {}
  },
  "userdoc": {
    "methods": {}
  }
}